S00B00005350492E737265632D
S11300000C9446000C9465000C9465000C946500F7
S11300100C9465000C9465000C9465000C946500C8
S11300200C9465000C9465000C9465000C946500B8
S11300300C9465000C9465000C9465000C946500A8
S11300400C9465000C9465000C9465000C94650098
S11300500C9465000C9465000C9465000C94650088
S11300600C9465000C9465000C9465000C94650078
S11300700C9465000C9465000C9465000C94650068
S11300800C9465000C9465000C94650011241FBE4B
S1130090CFEFD0E4DEBFCDBF11E0A0E0B1E0EEE2EF
S11300A0F2E000E00BBF02C007900D92A030B10750
S11300B0D9F722E0A0E0B1E001C01D92A63BB2074F
S11300C0E1F70E9401010C9415010C940000FC015D
S11300D023E0F695E7952A95E1F7EC5FFE4F8770EC
S11300E0992721E030E001C0220F8A95EAF7808148
S11300F0822B80830895CF93DF93249A70E241E0AA
S113010050E0E0E1FFEEAFED6623A1F075B92FEF0B
S1130110260FEA0102C0CC0FDD1F2A95E2F79E01EB
S113012028233923232B11F0F5B901C0E5B9A5B96A
S11301306150EACFDF91CF91089580E885B96CE0F2
S113014084E090E00E947B008FE785B90895CF9307
S1130150C82F279A8FE785B9259A8FED85B9249AF8
S113016081E00E949D0083E00E949D0088E00E943F
S11301709D0084E10E949D0088E10E949D008C2FD7
S11301800E949D008FEA0E949D0088E180930201F5
S113019080E180930301CF910895CF93DF9380E8AA
S11301A085B963E085E090E00E947B0067E080E031
S11301B090E00E947B00C0E0D0E090910201809129
S11301C003019802C001112497FD079643E0959519
S11301D087954A95E1F7C817D90770F4FE01EC5FDB
S11301E0FE4F808190E0982F8827218160E1822B47
S11301F00E947B002296E1CF8FE785B9DF91CF91F2
S1130200089580EB84B981ED8CBD81E38EBD80E8D7
S11302108DBD81E00E94A70081E090E00E9467000C
S11102200E94CD0080E090E00895F894FFCF96
S9030000FC
